:100000000C9477000C949F000C949F000C949F001C
:100010000C949F000C949F000C949F000C949F00E4
:100020000C949F000C949F000C949F000C949F00D4
:100030000C949F000C949F000C949F000C949F00C4
:100040000C949F000C949F000C94660D0C949F00E0
:100050000C94B80F0C949F000C949F000C949F007C
:100060000C949F000C949F000C949F000C949F0094
:100070000C94F50F0C949F000C949F0000212427F2
:100080002A002225282B0020232629020202020210
:10009000020202040404040404040403030303032B
:1000A0000303030101010101010101010204081020
:1000B0002040800102040810204080010204081042
:1000C000204080804020100804020100000001024E
:1000D000000000000000000403070600000000000C
:1000E000000000000000000000000000240C1124AB
:1000F0001FBECFEFD0E1DEBFCDBF11E0A0E0B1E089
:10010000EEE7F5E202C005900D92A437B107D9F7EA
:1001100019E0A4E7B1E001C01D92A235B107E1F7F3
:1001200010E0CEEED0E004C02297FE010E948212C1
:10013000CC3ED107C9F70E941D0C0C94BD120C9443
:100140000000A0E0B0E0E7EAF0E00C948E12EC01D1
:10015000A880B980CA80DB80A114B104C104D10495
:1001600041F484E2A82E89EDB82E8BE5C82E87E0F5
:10017000D82EC601B5012DE133EF41E050E00E94D9
:10018000511227EA31E440E050E00E94FD117B016A
:100190008C01C601B5012DE133EF41E050E00E9432
:1001A0005112CA01B9012CEE34EF4FEF5FEF0E94FC
:1001B000FD116E0D7F1D801F911F97FF04C06150C0
:1001C000704080409048688379838A839B839B0139
:1001D000AC015F77B901CA01CDB7DEB7EAE00C9494
:1001E000AA120E94A100089581E491E00E94A1005A
:1001F000089560934101709342018093430190936D
:10020000440108958BE190E09093FD078093FC07F3
:100210008CE190E090930508809304088DE190E0D4
:1002200090930D0880930C088EE190E09093150850
:100230008093140887E190E09093FF078093FE0776
:1002400088E190E0909307088093060889E190E0A8
:1002500090930F0880930E088AE190E0909317081E
:100260008093160883E190E0909301088093000842
:1002700084E190E0909309088093080885E190E07C
:10028000909311088093100886E190E090931908EC
:10029000809318088FE090E0909303088093020801
:1002A00080E190E090930B0880930A0881E190E050
:1002B000909313088093120882E190E090931B08BA
:1002C00080931A08089582EA99E090931D0880931C
:1002D0001C088FE699E090931F0880931E0882E324
:1002E00099E0909321088093200885EF98E09093FF
:1002F00023088093220888EB98E090932508809348
:1003000024088BE798E090932708809326088EE3D3
:1003100098E0909329088093280889ED97E09093BE
:100320002B0880932A0884E797E090932D08809308
:100330002C0887E397E090932F0880932E088AEF8C
:1003400096E090933108809330088DEB96E090937F
:100350003308809332088AE896E0909335088093BA
:10036000340887E596E0909337088093360808951F
:100370002F923F924F925F926F927F928F929F92B5
:10038000BF92CF92DF92EF92FF920F931F93CF9382
:10039000DF9304E8402E04E0502EF20180E090E06C
:1003A000A0E0B0E081939193A193B19324E0EC3B62
:1003B000F207C1F718EEE12E17E0F12E8701F801E0
:1003C00061918F01C62FD0E0CC0FDD1FCC0FDD1F58
:1003D000CC57DB4F688179818A819B8120E030E0B6
:1003E00040E85FE30E947B10688379838A839B8364
:1003F000F7E00A3F1F0719F72CEA31E080E090E0B0
:10040000A8E3B0E040E050E060E070E00DC0419350
:10041000519361937193E217F307C9F70196285C32
:100420003F4F8E30910551F08A9FF0018B9FF00D68
:100430009A9FF00D1124EC58FE4FE9CFF70140814F
:10044000218130E0842F90E0880F991F8C01F3E028
:10045000000F111FFA95E1F7081B190B020F131F6C
:10046000000F111F000F111F0C581E4F842F90E01A
:10047000880F991FFC0163E0EE0FFF1F6A95E1F7FB
:10048000E81BF90BE20FF31FEE0FFF1FEE0FFF1F2C
:10049000EC58FE4F608171818281938120E030E0D1
:1004A00040E85FE30E947B10F801608371838283E0
:1004B00093830894E11CF11CFAEFEF16F7E0FF06B6
:1004C00009F0BCCF24EF34E080E090E0A8E3B0E096
:1004D00040E050E060E070E00EC0419351936193C2
:1004E0007193E217F307C9F701969F01285C3F4F0C
:1004F0008E30910551F08A9FF0018B9FF00D9A9FED
:10050000F00D1124E454FB4FE8CFEE24FF24CC245B
:10051000DD2448E3242E312CF2016080718082803A
:100520009380860104541B4FF601EC58FE4F608106
:10053000718182819381A40193010E94E310F801EB
:100540006083718382839383C701880F991FEC01B5
:1005500023E0CC0FDD1F2A95E1F7C81BD90BCC0F88
:10056000DD1FCC0FDD1FC858DE4FE29C8001E39CED
:10057000100DF29C100D112404541B4FBB24B39496
:100580006991799189919991A40193010E94E31055
:100590009B01AC01F80160817181828193810E948D
:1005A0007B10F8016483758386839783B3940C5F13
:1005B0001F4FFEE0BF1621F70894E11CF11C84E0F8
:1005C00090E0480E591EE8E3F0E0CE0EDF1EFEE09C
:1005D000EF16F10409F0A0CFDF91CF911F910F9199
:1005E000FF90EF90DF90CF90BF909F908F907F9083
:1005F0006F905F904F903F902F90089564EF71E05F
:1006000080E090E00E94E40D8091FC0761E00E9490
:10061000840E8091FE0761E00E94840E80910008A4
:1006200061E00E94840E8091020861E00E94840EC5
:100630008091040861E00E94840E80910A0861E0C4
:100640000E94840E80910C0861E00E94840E8091CB
:10065000120861E00E94840E8091140861E00E94FB
:10066000840E8091160861E00E94840E8091180823
:1006700061E00E94840E80911A0861E00E94840E5D
:1006800068E770E080E090E00E94E40D8091FC0754
:1006900060E00E94840E8091FE0760E00E94840E5C
:1006A0008091000860E00E94840E8091020860E062
:1006B0000E94840E8091040860E00E94840E809164
:1006C0000A0860E00E94840E80910C0860E00E949D
:1006D000840E8091120860E00E94840E80911408BC
:1006E00060E00E94840E8091160860E00E94840EF3
:1006F0008091180860E00E94840E80911A0860E0E2
:100700000E94840E68EC70E080E090E00E94E40DAE
:100710008091060861E00E94840E8091080861E0E3
:100720000E94840E80910E0861E00E94840E8091E8
:10073000100861E00E94840E68E770E080E090E0BD
:100740000E94E40D8091060860E00E94840E809172
:10075000080860E00E94840E80910E0860E00E940C
:10076000840E8091100860E00E94840E64EF71E0B6
:1007700080E090E00E94E40D08958F929F92AF92E6
:10078000BF92CF92DF92EF92FF920F931F9364EF8D
:1007900071E080E090E00E94E40D06E018E08091B6
:1007A000060861E00E94840E8091080861E00E94C2
:1007B000840E80910E0861E00E94840E80911008E2
:1007C00061E00E94840E68E770E080E090E00E94A3
:1007D000E40D8091060860E00E94840E8091080874
:1007E00060E00E94840E80910E0860E00E94840EFA
:1007F0008091100860E00E94840E68EC70E080E058
:1008000090E00E94E40D36EF832E3FEF932E800E92
:10081000911EF401808161E00E94840E28EFA22ED7
:100820002FEFB22EA00EB11EF501808161E00E9473
:10083000840E9AEFC92E9FEFD92EC00ED11EF6015D
:10084000808161E00E94840E8CEFE82E8FEFF82EFD
:10085000E00EF11EF701808161E00E94840E0250DB
:100860001040F801808161E00E94840E80910A08A6
:1008700061E00E94840E80910C0861E00E94840E69
:100880008091120861E00E94840E8091140861E05A
:100890000E94840E8091160861E00E94840E80916F
:1008A000180861E00E94840E80911A0861E00E949D
:1008B000840E68E770E080E090E00E94E40DF401AF
:1008C000808160E00E94840EF501808160E00E94DA
:1008D000840EF601808160E00E94840EF701808121
:1008E00060E00E94840EF801808160E00E94840E26
:1008F00080910A0860E00E94840E80910C0860E0FC
:100900000E94840E8091120860E00E94840E809103
:10091000140860E00E94840E8091160860E00E9436
:10092000840E8091180860E00E94840E80911A085D
:1009300060E00E94840E64EF71E080E090E00E942D
:10094000E40D1F910F91FF90EF90DF90CF90BF903B
:10095000AF909F908F9008958091FC0761E00E9476
:10096000840E60E471E080E090E00E94E40D8091EC
:10097000FC0760E00E94840E60E471E080E090E09B
:100980000E94E40D08958091FC0761E00E94840EAE
:100990008091FE0761E00E94840E8091000861E072
:1009A0000E94840E8091020861E00E94840E6CE334
:1009B00070E080E090E00E94E40D8091FC0760E030
:1009C0000E94840E8091FE0760E00E94840E809158
:1009D000000860E00E94840E8091020860E00E949E
:1009E000840E6CE370E080E090E00E94E40D809162
:1009F000040861E00E94840E8091060861E00E9474
:100A0000840E8091080861E00E94840E80910A089B
:100A100061E00E94840E6CE370E080E090E00E9450
:100A2000E40D8091040860E00E94840E8091060825
:100A300060E00E94840E8091080860E00E94840EAD
:100A400080910A0860E00E94840E6CE370E080E010
:100A500090E00E94E40D80910C0861E00E94840EF9
:100A600080910E0861E00E94840E8091100861E080
:100A70000E94840E8091120861E00E94840E6CE353
:100A800070E080E090E00E94E40D80910C0860E04E
:100A90000E94840E80910E0860E00E94840E809176
:100AA000100860E00E94840E8091120860E00E94AD
:100AB000840E6CE370E080E090E00E94E40D809191
:100AC000140861E00E94840E8091160861E00E9483
:100AD000840E8091180861E00E94840E80911A08AB
:100AE00061E00E94840E6CE370E080E090E00E9480
:100AF000E40D8091140860E00E94840E8091160835
:100B000060E00E94840E8091180860E00E94840ECC
:100B100080911A0860E00E94840E6CE370E080E02F
:100B200090E00E94E40D08958F929F92AF92BF9241
:100B3000CF92DF92EF92FF920F931F93CF93DF93A9
:100B400056ED852E57E0952EE40160E070E080E0E0
:100B500090E02EE030E040E050E00E9454106993B5
:100B600087E0C83ED80789F760E070E080E090E059
:100B70002DE030E040E050E00E945410DC01CB0159
:100B80008851984FFC0180818093D60741E0E42E84
:100B9000F12C08E380E00E94480E0E94721062E08F
:100BA00070E080E090E02BE030E040E050E00E9418
:100BB00054100E944D1120E030E040E251E40E94C8
:100BC000E3105B016C01F701EB52F84F8081809FCD
:100BD000E0011124C454DB4F10E0C601B5012881A7
:100BE00039814A815B810E94DF10181694F011232D
:100BF00059F460E070E080E090E025E030E040E013
:100C000050E00E945410162FF701EA52F84F10835B
:100C100004C01F5F24961E3001F70894E11CF11CEC
:100C2000F2E1EF16F10409F0B5CF40E020E030E04A
:100C3000F901EA52F84FD901A851B84F90818C912F
:100C4000981341E02F5F3F4F2231310589F744234C
:100C5000E1F40E94C3040E94C30464EF71E080E0E9
:100C600090E00E94E40D61E070E080E090E02EE012
:100C700030E040E050E00E945410F40161934F01D5
:100C8000F8EE8F16F7E09F0671F7DF91CF911F9175
:100C90000F91FF90EF90DF90CF90BF90AF909F901B
:100CA0008F9008950E94B8010E9494050895809144
:100CB000000861E00E94840E8091060861E00E94B5
:100CC000840E80910C0861E00E94840E60914501C1
:100CD0007091460180914701909148010E94E40D76
:100CE0008091000860E00E94840E8091060860E018
:100CF0000E94840E80910C0860E00E94840E609136
:100D000045017091460180914701909148010E94F0
:100D1000E40D08958091FE0761E00E94840E8091A9
:100D2000080861E00E94840E8091120861E00E9430
:100D3000840E609145017091460180914701909128
:100D400048010E94E40D8091FE0760E00E94840E3D
:100D50008091080860E00E94840E8091120860E093
:100D60000E94840E60914501709146018091470177
:100D7000909148010E94E40D08958091020861E07D
:100D80000E94840E8091080861E00E94840E809188
:100D90000E0861E00E94840E8091140861E00E94B8
:100DA000840E6091450170914601809147019091B8
:100DB00048010E94E40D8091020860E00E94840EC8
:100DC0008091080860E00E94840E80910E0860E027
:100DD0000E94840E8091140860E00E94840E60914D
:100DE00045017091460180914701909148010E9410
:100DF000E40D08958091FC0761E00E94840E8091CB
:100E0000060861E00E94840E8091100861E00E9453
:100E1000840E80911A0861E00E94840E6091450161
:100E20007091460180914701909148010E94E40D24
:100E30008091FC0760E00E94840E8091060860E0CB
:100E40000E94840E8091100860E00E94840E8091C0
:100E50001A0860E00E94840E60914501709146017D
:100E600080914701909148010E94E40D089580917E
:100E7000020861E00E94840E80910A0861E00E94ED
:100E8000840E80910C0861E00E94840E8091140809
:100E900061E00E94840E609145017091460180914D
:100EA0004701909148010E94E40D8091020860E0A2
:100EB0000E94840E80910A0860E00E94840E809156
:100EC0000C0860E00E94840E8091140860E00E948B
:100ED000840E609145017091460180914701909187
:100EE00048010E94E40D08958091040861E00E9489
:100EF000840E8091060861E00E94840E80910808AB
:100F000061E00E94840E80910A0861E00E94840ED4
:100F100080910C0861E00E94840E80910E0861E0CF
:100F20000E94840E8091100861E00E94840E8091DE
:100F3000120861E00E94840E6091450170914601A3
:100F400080914701909148010E94E40D809104082E
:100F500060E00E94840E8091060860E00E94840E8A
:100F60008091080860E00E94840E80910A0860E089
:100F70000E94840E80910C0860E00E94840E809193
:100F80000E0860E00E94840E8091100860E00E94CC
:100F9000840E8091120860E00E94840E60914501E9
:100FA0007091460180914701909148010E94E40DA3
:100FB00008958091FE0761E00E94840E80910008F0
:100FC00061E00E94840E8091060861E00E94840E18
:100FD0008091080861E00E94840E80910E0861E013
:100FE0000E94840E8091100861E00E94840E80911E
:100FF000160861E00E94840E8091180861E00E944A
:10100000840E609145017091460180914701909155
:1010100048010E94E40D8091FE0760E00E94840E6A
:101020008091000860E00E94840E8091060860E0D4
:101030000E94840E8091080860E00E94840E8091D6
:101040000E0860E00E94840E8091100860E00E940B
:10105000840E8091160860E00E94840E809118082A
:1010600060E00E94840E609145017091460180917C
:101070004701909148010E94E40D08958091100865
:1010800061E00E94840E8091120861E00E94840E4B
:101090008091180861E00E94840E80911A0861E036
:1010A0000E94840E60914501709146018091470134
:1010B000909148010E94E40D8091100860E00E9428
:1010C000840E8091120860E00E94840E80911808BE
:1010D00060E00E94840E80911A0860E00E94840EF5
:1010E00060914501709146018091470190914801BE
:1010F0000E94E40D089580910C0861E00E94840E26
:1011000080910E0861E00E94840E8091140861E0D5
:101110000E94840E8091160861E00E94840E609106
:1011200045017091460180914701909148010E94CC
:10113000E40D80910C0860E00E94840E80910E08FE
:1011400060E00E94840E8091140860E00E94840E8A
:101150008091160860E00E94840E609145017091B4
:10116000460180914701909148010E94E40D089545
:101170008091000861E00E94840E8091020861E085
:101180000E94840E8091080861E00E94840E809184
:101190000A0861E00E94840E609145017091460149
:1011A00080914701909148010E94E40D80910008D0
:1011B00060E00E94840E8091020860E00E94840E2C
:1011C0008091080860E00E94840E80910A0860E027
:1011D0000E94840E60914501709146018091470103
:1011E000909148010E94E40D08958091FC0761E010
:1011F0000E94840E8091FE0761E00E94840E80911F
:10120000040861E00E94840E8091060861E00E945B
:10121000840E609145017091460180914701909143
:1012200048010E94E40D8091FC0760E00E94840E5A
:101230008091FE0760E00E94840E8091040860E0C7
:101240000E94840E8091060860E00E94840E6091E6
:1012500045017091460180914701909148010E949B
:10126000E40D08958091FC0761E00E94840E809156
:10127000040861E00E94840E8091120861E00E94DF
:10128000840E80911A0861E00E94840E60914501ED
:101290007091460180914701909148010E94E40DB0
:1012A0008091FC0760E00E94840E8091040860E059
:1012B0000E94840E8091120860E00E94840E80914A
:1012C0001A0860E00E94840E609145017091460109
:1012D00080914701909148010E94E40D089580910A
:1012E000040861E00E94840E80910E0861E00E9473
:1012F000840E8091180861E00E94840E609145017F
:101300007091460180914701909148010E94E40D3F
:101310008091040860E00E94840E80910E0860E0D5
:101320000E94840E8091180860E00E94840E6091F3
:1013300045017091460180914701909148010E94BA
:10134000E40D089580910A0861E00E94840E809166
:10135000100861E00E94840E8091160861E00E94EE
:10136000840E6091450170914601809147019091F2
:1013700048010E94E40D80910A0860E00E94840EFA
:101380008091100860E00E94840E8091160860E051
:101390000E94840E60914501709146018091470141
:1013A000909148010E94E40D0895EF92FF920F93EF
:1013B0001F93CF93DF937C018B01FB0180818823F6
:1013C000B1F4C0E0D0E08BE398E00E94430C8823A6
:1013D00031F08BE398E00E943E0CF70107C02196A4
:1013E000F0E2C130DF0779F781E0F8018083DF9117
:1013F000CF911F910F91FF90EF900895CF93DF93BE
:101400008BE398E00E94390C1092D1071092CC0720
:1014100080E00E94480E0E9472100E94C304C6ED34
:10142000D7E061E070E080E090E02EE030E040E066
:1014300050E00E945410699387E0C83ED80789F7AE
:10144000DF91CF9108950F931F93CF93DF938BE399
:1014500098E00E94430C882309F484C08BE398E051
:101460000E943E0C8093D407863409F076C0109217
:10147000FA0708EE17E0F8018FEF819397E0EA3F53
:10148000F907D9F7C0E0D0E0CE018851984F6AEF54
:1014900077E00E94D5092196C231D105A9F784EDE4
:1014A00097E06AEF77E00E94D50991E0F80180812A
:1014B0008E3008F090E00F5F1F4FF7E00A3F1F07E4
:1014C000A9F7992321F08091FA07882359F08BE33B
:1014D00098E00E94390C88E398E060E071E00E9497
:1014E0007C0C46C08091D407863609F041C00E942A
:1014F0005206C6EDD7E0E991F0E0EE0FFF1FE45E83
:10150000F74F0190F081E02D099587E0C83ED8079C
:1015100091F78BE398E048E450E060E070E020E071
:1015200030E00E94460D8BE398E041E350E060E03C
:1015300070E020E030E00E94460D8BE398E048E642
:1015400050E060E070E020E030E00E94460D0E9434
:10155000BD0381E08093D1070BC08BE398E00E942C
:10156000390C06C06DE070E080E090E00E94E40D70
:10157000DF91CF911F910F910895EF92FF920F93FA
:101580001F93CF93DF938BE398E00E94390CEE24F6
:10159000FF2487014CC088E398E06BE171E00E9472
:1015A0004D0C88E398E0B801A7012AE030E00E94E2
:1015B0005B0D8BE398E046E450E060E070E020E0F3
:1015C00030E00E94460DC6EDD7E0499150E060E062
:1015D00070E08BE398E020E030E00E94460D87E069
:1015E000C83ED80791F78BE398E046E650E060E00C
:1015F00070E020E030E00E94460D62E370E080E0A1
:1016000090E00E94E40D0894E11CF11C011D111DE5
:101610008FE1E816F1040105110549F488E398E02B
:101620006AE271E00E944D0C0E94FE0939C08BE312
:1016300098E00E94430C882309F4ADCF8BE398E037
:101640000E943E0C8093D407883411F51092FB075A
:1016500011C08BE398E00E94430C882379F461E089
:1016600070E080E090E00E94E40D8091FB078F5FC6
:101670008093FB078091FB078A3F58F38BE398E048
:101680000E943E0C8093D5078BE398E00E94390CB2
:101690000E94FE021092D1078BE398E00E94390C61
:1016A000DF91CF911F910F91FF90EF9008951F93BD
:1016B0001092D3078BE398E00E94390C0E94D60D5C
:1016C0006093CD077093CE078093CF079093D00798
:1016D00011E056C00E94AC048BE398E00E94430CDA
:1016E000882369F18BE398E00E943E0C8093D40735
:1016F0008BE398E00E94390C8091D407823561F425
:101700008BE398E042E450E060E070E020E030E0FD
:101710000E94460D1093CC078091D407823481F546
:101720008BE398E040E550E060E070E020E030E0DE
:101730000E94460D1093CC071093D10721C00E9440
:10174000D60D2091CD073091CE074091CF07509113
:10175000D007621B730B840B950B655F7140804053
:10176000904070F08BE398E00E94390C8BE398E096
:1017700042E550E060E070E020E030E00E94460D7D
:101780008091CC07882309F4A5CF1F9108958091FB
:10179000CC07882319F40E94570B08958091D10734
:1017A000813019F40E94BD0A08950E94230A089509
:1017B00080E00E94480E0E94721060E070E080E0BD
:1017C00090E028EE33E040E050E00E9454100E9488
:1017D000E40D0E94FE090E9463010E940201109222
:1017E000D2070DC0EE0FFF1FE55BFE4F808161E069
:1017F0000E94660E8091D2078F5F8093D2078091FE
:10180000D207E82FF0E08091490190914A01E81752
:10181000F90744F388E398E040EB54E060E070E0BF
:101820000E94480C8BE398E040EB54E060E070E0ED
:101830000E94480C0E94C30408950E940E0E0E944C
:10184000D80B0E94C70BFDCF82E791E09093390837
:101850008093380810923A0890933C0880933B0894
:1018600081E080933D080895FC0182810E94570F1A
:101870000895FC0182810E94AA0F0895FC018281D3
:101880000E947D0F0895FC0182810E94670F0895D8
:10189000FC0182810E94CF0E08950F931F93CF9376
:1018A000DF938C01EB0109C02196D801ED91FC91E9
:1018B0000190F081E02DC801099568816623A1F7A8
:1018C000DF91CF911F910F9108950F931F938C017A
:1018D000DC01ED91FC910190F081E02D6DE0099526
:1018E000D801ED91FC910190F081E02DC8016AE0F2
:1018F00009951F910F9108950F931F938C010E94DA
:101900004D0CC8010E94650C1F910F9108952F92F4
:101910003F924F925F926F927F928F929F92AF927F
:10192000BF92CF92DF92EF92FF920F931F93DF93BC
:10193000CF93CDB7DEB7A0970FB6F894DEBF0FBE3A
:10194000CDBF1C016A017B0141155105610571057F
:1019500049F4DC01ED91FC910190F081E02D60E310
:10196000099554C0882499245401422E5524662494
:10197000772401E010E00C0F1D1F080D191DC70191
:10198000B601A30192010E942F12F801608308940E
:10199000811C911CA11CB11CC701B601A3019201BD
:1019A0000E942F12C901DA016C017D01C114D1041A
:1019B000E104F104F1F681E0E82EF12CEC0EFD1EBD
:1019C000E80CF91C3E010894611C711CD501C4018E
:1019D0000197A109B1096C01C818D90814C0F60112
:1019E000EE0DFF1D60816A3010F4605D01C0695C1E
:1019F000D101ED91FC910190F081E02DC10109959B
:101A00000894E108F1086E147F0449F7A0960FB618
:101A1000F894DEBF0FBECDBFCF91DF911F910F9124
:101A2000FF90EF90DF90CF90BF90AF909F908F90FE
:101A30007F906F905F904F903F902F900895EF921E
:101A4000FF920F931F93CF93DF93EC017A018B01E9
:101A500077FF0FC0E881F9810190F081E02D6DE200
:101A6000099510950095F094E094E11CF11C011D7E
:101A7000111DCE01B801A7012AE00E94870CDF9159
:101A8000CF911F910F91FF90EF900895DC012115E8
:101A9000310541F4ED91FC910190F081E02D642F2E
:101AA000099508952A30310519F40E941F0D0895F3
:101AB0000E94870C08950F931F938C010E94460D7E
:101AC000C8010E94650C1F910F9108951F920F92FB
:101AD0000FB60F9211242F938F939F93AF93BF93C1
:101AE00080913E0890913F08A0914008B091410834
:101AF0000196A11DB11D80933E0890933F08A093CD
:101B00004008B09341088091420890914308A09109
:101B10004408B09145088050904CAF4FBF4F809320
:101B2000420890934308A0934408B093450827C007
:101B30008091420890914308A0914408B0914508D3
:101B400080589E43A040B040809342089093430841
:101B5000A0934408B09345088091460890914708A7
:101B6000A0914808B09149080196A11DB11D80932C
:101B7000460890934708A0934808B093490880917D
:101B8000420890914308A0914408B09145088158BB
:101B90009E43A040B04060F6BF91AF919F918F915E
:101BA0002F910F900FBE0F901F9018958FB7F8943C
:101BB00020914608309147084091480850914908C3
:101BC0008FBFB901CA010895EF92FF920F931F933F
:101BD0007B018C018FB7F8944091460850914708DB
:101BE00060914808709149088FBF2FB7F894809191
:101BF000460890914708A0914808B09149082FBF26
:101C0000841B950BA60BB70BE816F9060A071B07F2
:101C100060F71F910F91FF90EF900895789484B52D
:101C2000826084BD84B5816084BD85B5826085BDD8
:101C300085B5816085BDEEE6F0E0808181608083BE
:101C4000E1E8F0E080818260808380818160808330
:101C5000E0E8F0E0808181608083E1EBF0E080816A
:101C600084608083E0EBF0E0808181608083EAE73C
:101C7000F0E08081846080838081826080838081C5
:101C8000816080838081806880831092C100089584
:101C900090916D019295990F990F907C8770892B87
:101CA00080937C0080917A00806480937A00809198
:101CB0007A0086FDFCCF2091780040917900942F26
:101CC00080E030E0282B392BC9010895282F30E01F
:101CD000C90185559F4FFC01949125573F4FF9014C
:101CE0008491882381F0E82FF0E0E458FF4FE491DD
:101CF000F0E0662329F480819095892380830895FC
:101D00008081892B80830895482F50E0CA01855334
:101D10009F4FFC012491CA0185559F4FFC0194916E
:101D200045575F4FFA0134913323C1F1222331F13A
:101D3000213019F484B58F7704C0223021F484B5A2
:101D40008F7D84BD1BC0233021F4809180008F776C
:101D500005C0243031F4809180008F7D8093800015
:101D60000DC0263021F48091B0008F7705C0273058
:101D700029F48091B0008F7D8093B000E32FF0E0D4
:101D8000EF57FF4FE491F0E0662329F480819095AE
:101D90008923808308958081892B80830895EF9221
:101DA000FF920F931F937A018B018823F1F5CB01EA
:101DB000BA0122E030E040E050E00E945112205C85
:101DC0003D4B404F5F4FCA01B901A80197010E94E6
:101DD0005112C901DA010197A109B109292F3A2F3E
:101DE0004B2F552747FD5A950196A11DB11D2093F4
:101DF000C50081508093C4001092C0001092C100B1
:101E00001092C2008091C10080618093C1008091D6
:101E1000C10088608093C1008091C1008068809378
:101E2000C10086E08093C2003DC0CB01BA0122E030
:101E300030E040E050E00E945112205C3D4B404FAA
:101E40005F4FCA01B901A80197010E945112C9014F
:101E5000DA010197A109B109292F3A2F4B2F5527F4
:101E600047FD5A950196A11DB11D2093CD008150CB
:101E70008093CC001092C8001092C9001092CA0042
:101E80008091C90080618093C9008091C9008860F9
:101E90008093C9008091C90080688093C90086E062
:101EA0008093CA001F910F91FF90EF9008958823AF
:101EB00039F48091C00085FFFCCF6093C60008957F
:101EC0008091C80085FFFCCF6093CE000895E82F75
:101ED000F0E0EE0FFF1FDF01A65BB74F8D919C91E5
:101EE00080589F4FE25BF74F20813181821B930B1B
:101EF00060E870E00E941C120895CF93DF93A82F32
:101F0000B0E0FD01EE0FFF1FEF01C25BD74F48812C
:101F10005981E65BF74F808191818417950719F409
:101F20002FEF3FEF13C0B695BA2FAA27B795A79505
:101F3000A40FB51FAE5AB74F2C91CA01019660E8A5
:101F400070E00E941C129983888330E0C901DF9100
:101F5000CF910895E82FF0E0EE0FFF1FDF01A25BA5
:101F6000B74F8D919C91E65BF74F918380830895E5
:101F70001F920F920FB60F9211242F933F934F93FE
:101F80005F936F937F938F939F93AF93BF93EF93E1
:101F9000FF934091C600E0914A08F0914B08CF01B1
:101FA000019660E870E00E941C129C0180914E082E
:101FB00090914F082817390739F0EE5AF74F4083B0
:101FC00030934B0820934A08FF91EF91BF91AF9156
:101FD0009F918F917F916F915F914F913F912F9141
:101FE0000F900FBE0F901F9018951F920F920FB673
:101FF0000F9211242F933F934F935F936F937F938F
:102000008F939F93AF93BF93EF93FF934091CE0035
:10201000E0914C08F0914D08CF01019660E870E026
:102020000E941C129C018091500890915108281721
:10203000390739F0EE52F74F408330934D08209323
:102040004C08FF91EF91BF91AF919F918F917F913C
:102050006F915F914F913F912F910F900FBE0F9015
:102060001F901895EF92FF920F931F937B018C01A5
:10207000611571058105910529F420E030E040E00B
:1020800050E00BC00E94F400A80197010E94511279
:10209000AC01CB01DA019C01AD01B901CA011F916C
:1020A0000F91FF90EF900895EF92FF920F931F937F
:1020B0007B018C01621773078407950764F4261B64
:1020C000370B480B590BCA01B9010E943210E60EBA
:1020D000F71E081F191FB701C8011F910F91FF902C
:1020E000EF900895009729F0BC0180E090E00E94F5
:1020F000F90008955058BB27AA270ED044C135D106
:1021000030F03AD120F031F49F3F11F41EF42AC18F
:102110000EF4E095E7FB20C1E92F46D180F3BA1712
:10212000620773078407950718F071F49EF55EC186
:102130000EF4E0950B2EBA2FA02D0B01B9019001E2
:102140000C01CA01A0011124FF27591B99F0593F26
:1021500050F4503E68F11A16F040A22F232F342F6E
:102160004427585FF3CF469537952795A795F040BC
:102170005395C9F77EF41F16BA0B620B730B840BD1
:10218000BAF09150A1F0FF0FBB1F661F771F881F89
:10219000C2F70EC0BA0F621F731F841F48F48795E1
:1021A00077956795B795F7959E3F08F0B3CF9395D0
:1021B000880F08F09927EE0F979587950895A8D076
:1021C00008F481E008950CD0DEC0D6D040F0CDD028
:1021D00030F021F45F3F19F0BFC0511108C1C2C0F7
:1021E000E3D098F39923C9F35523B1F3951B550B0D
:1021F000BB27AA2762177307840738F09F5F5F4FDA
:10220000220F331F441FAA1FA9F333D00E2E3AF01A
:10221000E0E830D091505040E695001CCAF729D034
:10222000FE2F27D0660F771F881FBB1F2617370783
:102230004807AB07B0E809F0BB0B802DBF01FF27B3
:1022400093585F4F2AF09E3F510568F085C0CFC07C
:102250005F3FECF3983EDCF3869577956795B795ED
:10226000F7959F5FC9F7880F911D9695879597F908
:102270000895E1E0660F771F881FBB1F6217730781
:102280008407BA0720F0621B730B840BBA0BEE1F96
:1022900088F7E0950895E89409C097FB3EF490957F
:1022A0008095709561957F4F8F4F9F4F9923A9F02F
:1022B000F92F96E9BB279395F695879577956795BE
:1022C000B795F111F8CFFAF4BB0F11F460FF1BC002
:1022D0006F5F7F4F8F4F9F4F16C0882311F096E995
:1022E00011C0772321F09EE8872F762F05C0662343
:1022F00071F096E8862F70E060E02AF09A95660FFC
:10230000771F881FDAF7880F9695879597F90895B4
:10231000990F0008550FAA0BE0E8FEEF16161706F6
:10232000E807F907C0F012161306E407F50798F05E
:10233000621B730B840B950B39F40A2661F0232B77
:10234000242B252B21F408950A2609F4A140A695F3
:102350008FEF811D811D089597F99F6780E870E0D8
:1023600060E008959FEF80EC089500240A9416160B
:10237000170618060906089500240A941216130673
:10238000140605060895092E0394000C11F4882301
:1023900052F0BB0F40F4BF2B11F460FF04C06F5F1D
:1023A0007F4F8F4F9F4F089557FD9058440F551FF3
:1023B00059F05F3F71F04795880F97FB991F61F0C7
:1023C0009F3F79F087950895121613061406551F3E
:1023D000F2CF4695F1DF08C0161617061806991FAA
:1023E000F1CF86957105610508940895E894BB279F
:1023F00066277727CB0197F90895629FD001739FD5
:10240000F001829FE00DF11D649FE00DF11D929F90
:10241000F00D839FF00D749FF00D659FF00D9927CF
:10242000729FB00DE11DF91F639FB00DE11DF91FF3
:10243000BD01CF011124089597FB092E07260AD06C
:1024400077FD04D049D006D000201AF4709561952C
:102450007F4F0895F6F7909581959F4F0895A1E2DB
:102460001A2EAA1BBB1BFD010DC0AA1FBB1FEE1F0E
:10247000FF1FA217B307E407F50720F0A21BB30B59
:10248000E40BF50B661F771F881F991F1A9469F7D5
:1024900060957095809590959B01AC01BD01CF0131
:1024A000089597FB092E05260ED057FD04D0D7DFDF
:1024B0000AD0001C38F450954095309521953F4F37
:1024C0004F4F5F4F0895F6F7909580957095619501
:1024D0007F4F8F4F9F4F0895AA1BBB1B51E107C031
:1024E000AA1FBB1FA617B70710F0A61BB70B881FA4
:1024F000991F5A95A9F780959095BC01CD01089533
:10250000EE0FFF1F0590F491E02D09942F923F925A
:102510004F925F926F927F928F929F92AF92BF92F3
:10252000CF92DF92EF92FF920F931F93CF93DF939F
:10253000CDB7DEB7CA1BDB0B0FB6F894DEBF0FBEFC
:10254000CDBF09942A88398848885F846E847D8449
:102550008C849B84AA84B984C884DF80EE80FD804B
:102560000C811B81AA81B981CE0FD11D0FB6F894C1
:0E257000DEBF0FBECDBFED010895F894FFCF82
:10257E0074696D6564206F7574206F722073796E47
:10258E00746178206E6F74206F6B00737475636B5B
:10259E0020696E206865726520006920747279204A
:1025AE00746F20646F2067616D652073657475703C
:1025BE0000010000004B00000010000F0010001181
:1025CE000012001300140015001600170018001951
:1025DE00001A001B001C001D001E001F0001000041
:0425EE000000340CA9
:00000001FF
